{
  "_format": "hh-sol-artifact-1",
  "contractName": "CrowdFunding",
  "sourceName": "contracts/CrowdFunding.sol",
  "abi": [
    {
      "inputs": [
        {
          "internalType": "uint256",
          "name": "",
          "type": "uint256"
        }
      ],
      "name": "campaigns",
      "outputs": [
        {
          "internalType": "address",
          "name": "owner",
          "type": "address"
        },
        {
          "internalType": "string",
          "name": "title",
          "type": "string"
        },
        {
          "internalType": "string",
          "name": "description",
          "type": "string"
        },
        {
          "internalType": "uint256",
          "name": "target",
          "type": "uint256"
        },
        {
          "internalType": "uint256",
          "name": "deadline",
          "type": "uint256"
        },
        {
          "internalType": "uint256",
          "name": "amountCollected",
          "type": "uint256"
        },
        {
          "internalType": "string",
          "name": "image",
          "type": "string"
        }
      ],
      "stateMutability": "view",
      "type": "function"
    },
    {
      "inputs": [
        {
          "internalType": "address",
          "name": "_owner",
          "type": "address"
        },
        {
          "internalType": "string",
          "name": "_title",
          "type": "string"
        },
        {
          "internalType": "string",
          "name": "_description",
          "type": "string"
        },
        {
          "internalType": "uint256",
          "name": "_target",
          "type": "uint256"
        },
        {
          "internalType": "uint256",
          "name": "_deadline",
          "type": "uint256"
        },
        {
          "internalType": "string",
          "name": "_image",
          "type": "string"
        }
      ],
      "name": "createCampaign",
      "outputs": [
        {
          "internalType": "uint256",
          "name": "",
          "type": "uint256"
        }
      ],
      "stateMutability": "nonpayable",
      "type": "function"
    },
    {
      "inputs": [
        {
          "internalType": "uint256",
          "name": "_id",
          "type": "uint256"
        }
      ],
      "name": "donateToCampaign",
      "outputs": [],
      "stateMutability": "payable",
      "type": "function"
    },
    {
      "inputs": [],
      "name": "getCampaigns",
      "outputs": [
        {
          "components": [
            {
              "internalType": "address",
              "name": "owner",
              "type": "address"
            },
            {
              "internalType": "string",
              "name": "title",
              "type": "string"
            },
            {
              "internalType": "string",
              "name": "description",
              "type": "string"
            },
            {
              "internalType": "uint256",
              "name": "target",
              "type": "uint256"
            },
            {
              "internalType": "uint256",
              "name": "deadline",
              "type": "uint256"
            },
            {
              "internalType": "uint256",
              "name": "amountCollected",
              "type": "uint256"
            },
            {
              "internalType": "string",
              "name": "image",
              "type": "string"
            },
            {
              "internalType": "address[]",
              "name": "donators",
              "type": "address[]"
            },
            {
              "internalType": "uint256[]",
              "name": "donations",
              "type": "uint256[]"
            }
          ],
          "internalType": "struct CrowdFunding.Campaign[]",
          "name": "",
          "type": "tuple[]"
        }
      ],
      "stateMutability": "view",
      "type": "function"
    },
    {
      "inputs": [
        {
          "internalType": "uint256",
          "name": "_id",
          "type": "uint256"
        }
      ],
      "name": "getDonators",
      "outputs": [
        {
          "internalType": "address[]",
          "name": "",
          "type": "address[]"
        },
        {
          "internalType": "uint256[]",
          "name": "",
          "type": "uint256[]"
        }
      ],
      "stateMutability": "view",
      "type": "function"
    },
    {
      "inputs": [],
      "name": "numberOfCampaigns",
      "outputs": [
        {
          "internalType": "uint256",
          "name": "",
          "type": "uint256"
        }
      ],
      "stateMutability": "view",
      "type": "function"
    }
  ],
  "bytecode": "0x6080604052600060015534801561001557600080fd5b50610f70806100256000396000f3fe6080604052600436106100555760003560e01c806307ca140d1461005a5780630fa91fa914610083578063141961bc146100b157806342a4fda8146100e45780639943e3a1146100f9578063a6b0363314610119575b600080fd5b34801561006657600080fd5b5061007060015481565b6040519081526020015b60405180910390f35b34801561008f57600080fd5b506100a361009e36600461095c565b61013b565b60405161007a929190610975565b3480156100bd57600080fd5b506100d16100cc36600461095c565b61020a565b60405161007a9796959493929190610a3f565b6100f76100f236600461095c565b6103e7565b005b34801561010557600080fd5b50610070610114366004610b4c565b6104a9565b34801561012557600080fd5b5061012e6105af565b60405161007a9190610c79565b600081815260208181526040918290206007810180548451818502810185019095528085526060948594929360080192909184918301828280156101a857602002820191906000526020600020905b81546001600160a01b0316815260019091019060200180831161018a575b50505050509150808054806020026020016040519081016040528092919081815260200182805480156101fa57602002820191906000526020600020905b8154815260200190600101908083116101e6575b5050505050905091509150915091565b600060208190529081526040902080546001820180546001600160a01b03909216929161023690610d86565b80601f016020809104026020016040519081016040528092919081815260200182805461026290610d86565b80156102af5780601f10610284576101008083540402835291602001916102af565b820191906000526020600020905b81548152906001019060200180831161029257829003601f168201915b5050505050908060020180546102c490610d86565b80601f01602080910402602001604051908101604052809291908181526020018280546102f090610d86565b801561033d5780601f106103125761010080835404028352916020019161033d565b820191906000526020600020905b81548152906001019060200180831161032057829003601f168201915b50505050509080600301549080600401549080600501549080600601805461036490610d86565b80601f016020809104026020016040519081016040528092919081815260200182805461039090610d86565b80156103dd5780601f106103b2576101008083540402835291602001916103dd565b820191906000526020600020905b8154815290600101906020018083116103c057829003601f168201915b5050505050905087565b600081815260208181526040808320600781018054600180820183559186528486200180546001600160a01b0319163317905560088201805491820181558552928420349301839055805491519293909290916001600160a01b03169084908381818185875af1925050503d806000811461047e576040519150601f19603f3d011682016040523d82523d6000602084013e610483565b606091505b5050905080156104a35782826005015461049d9190610dd0565b60058301555b50505050565b6001546000908152602081905260408120600481015442116105255760405162461bcd60e51b815260206004820152602b60248201527f54686520646561646c696e652073686f756c642062652061206461746120696e60448201526a207468652066757475726560a81b606482015260840160405180910390fd5b80546001600160a01b0319166001600160a01b0389161781556001810161054c8882610e38565b506002810161055b8782610e38565b506003810185905560048101849055600060058201556006810161057f8482610e38565b506001805490600061059083610ef8565b9190505550600180546105a39190610f11565b98975050505050505050565b6060600060015467ffffffffffffffff8111156105ce576105ce610aa9565b60405190808252806020026020018201604052801561065757816020015b61064460405180610120016040528060006001600160a01b0316815260200160608152602001606081526020016000815260200160008152602001600081526020016060815260200160608152602001606081525090565b8152602001906001900390816105ec5790505b50905060005b60015481101561095657600081815260208181526040918290208251610120810190935280546001600160a01b03168352600181018054919392849290840191906106a790610d86565b80601f01602080910402602001604051908101604052809291908181526020018280546106d390610d86565b80156107205780601f106106f557610100808354040283529160200191610720565b820191906000526020600020905b81548152906001019060200180831161070357829003601f168201915b5050505050815260200160028201805461073990610d86565b80601f016020809104026020016040519081016040528092919081815260200182805461076590610d86565b80156107b25780601f10610787576101008083540402835291602001916107b2565b820191906000526020600020905b81548152906001019060200180831161079557829003601f168201915b505050505081526020016003820154815260200160048201548152602001600582015481526020016006820180546107e990610d86565b80601f016020809104026020016040519081016040528092919081815260200182805461081590610d86565b80156108625780601f1061083757610100808354040283529160200191610862565b820191906000526020600020905b81548152906001019060200180831161084557829003601f168201915b50505050508152602001600782018054806020026020016040519081016040528092919081815260200182805480156108c457602002820191906000526020600020905b81546001600160a01b031681526001909101906020018083116108a6575b505050505081526020016008820180548060200260200160405190810160405280929190818152602001828054801561091c57602002820191906000526020600020905b815481526020019060010190808311610908575b50505050508152505083838151811061093757610937610f24565b602002602001018190525050808061094e90610ef8565b91505061065d565b50919050565b60006020828403121561096e57600080fd5b5035919050565b604080825283519082018190526000906020906060840190828701845b828110156109b75781516001600160a01b031684529284019290840190600101610992565b5050508381038285015284518082528583019183019060005b818110156109ec578351835292840192918401916001016109d0565b5090979650505050505050565b6000815180845260005b81811015610a1f57602081850181015186830182015201610a03565b506000602082860101526020601f19601f83011685010191505092915050565b6001600160a01b038816815260e060208201819052600090610a63908301896109f9565b8281036040840152610a7581896109f9565b90508660608401528560808401528460a084015282810360c0840152610a9b81856109f9565b9a9950505050505050505050565b634e487b7160e01b600052604160045260246000fd5b600082601f830112610ad057600080fd5b813567ffffffffffffffff80821115610aeb57610aeb610aa9565b604051601f8301601f19908116603f01168101908282118183101715610b1357610b13610aa9565b81604052838152866020858801011115610b2c57600080fd5b836020870160208301376000602085830101528094505050505092915050565b60008060008060008060c08789031215610b6557600080fd5b86356001600160a01b0381168114610b7c57600080fd5b9550602087013567ffffffffffffffff80821115610b9957600080fd5b610ba58a838b01610abf565b96506040890135915080821115610bbb57600080fd5b610bc78a838b01610abf565b9550606089013594506080890135935060a0890135915080821115610beb57600080fd5b50610bf889828a01610abf565b9150509295509295509295565b600081518084526020808501945080840160005b83811015610c3e5781516001600160a01b031687529582019590820190600101610c19565b509495945050505050565b600081518084526020808501945080840160005b83811015610c3e57815187529582019590820190600101610c5d565b60006020808301818452808551808352604092508286019150828160051b87010184880160005b83811015610d7857888303603f19018552815180516001600160a01b0316845261012088820151818a870152610cd8828701826109f9565b9150508782015185820389870152610cf082826109f9565b606084810151908801526080808501519088015260a0808501519088015260c080850151888303828a01529193509150610d2a83826109f9565b9250505060e08083015186830382880152610d458382610c05565b925050506101008083015192508582038187015250610d648183610c49565b968901969450505090860190600101610ca0565b509098975050505050505050565b600181811c90821680610d9a57607f821691505b60208210810361095657634e487b7160e01b600052602260045260246000fd5b634e487b7160e01b600052601160045260246000fd5b80820180821115610de357610de3610dba565b92915050565b601f821115610e3357600081815260208120601f850160051c81016020861015610e105750805b601f850160051c820191505b81811015610e2f57828155600101610e1c565b5050505b505050565b815167ffffffffffffffff811115610e5257610e52610aa9565b610e6681610e608454610d86565b84610de9565b602080601f831160018114610e9b5760008415610e835750858301515b600019600386901b1c1916600185901b178555610e2f565b600085815260208120601f198616915b82811015610eca57888601518255948401946001909101908401610eab565b5085821015610ee85787850151600019600388901b60f8161c191681555b5050505050600190811b01905550565b600060018201610f0a57610f0a610dba565b5060010190565b81810381811115610de357610de3610dba565b634e487b7160e01b600052603260045260246000fdfea2646970667358221220b114a905bde3c42b7f2dc9d47bac74de13a60045e89bb167b033a3dffb9f48fe64736f6c63430008110033",
  "linkReferences": {},
  "deployedLinkReferences": {}
}